:100000000C9442000C945F000C945F000C945F0011
:100010000C945F000C945F000C945F000C945F00E4
:100020000C945F000C945F000C945F000C945F00D4
:100030000C945F000C945F000C945F000C945F00C4
:100040000C945F000C945F000C945F000C945F00B4
:100050000C945F000C945F000C945F000C945F00A4
:100060000C945F000C945F00466F726E6F204675B3
:100070006E646963616F0042656D2076696E646FBE
:10008000203A290011241FBECFEFD8E0DEBFCDBF3C
:1000900011E0A0E0B1E0E2ECF2E002C005900D92C8
:1000A000A030B107D9F721E0A0E0B1E001C01D9276
:1000B000A231B207E1F70E9448010C945F010C9451
:1000C000000085B1816085B985E08A95F1F700006F
:1000D00085B18E7F85B985E08A95F1F70000089596
:1000E000CF93C82F662321F085B1826085B903C004
:1000F00085B18D7F85B925B19C2F907F892F90E0A8
:100100009595879595958795922F9370892B85B9AD
:100110000E94610025B1CF708C2F90E0880F991F4D
:10012000880F991F922F9370892B85B90E946100C7
:1001300087EC90E00197F1F700C00000CF9108959F
:10014000882329F060E08CE00E947000089560E050
:1001500088E00E9470000895811180E460E080686A
:100160000E94700087EC90E00197F1F700C000005A
:1001700008950F931F93CF93DF938B010E94AC00E0
:10018000D0E0C0E011C0D11107C0F801EC0FF11DA3
:100190008491882319F004C080E202C080E2D1E09B
:1001A00061E00E947000CF5FC03168F3DF91CF91B2
:1001B0001F910F91089560E081E00E9470008FE32D
:1001C0009FE10197F1F700C00000089560E082E030
:1001D0000E9470008FE39FE10197F1F700C00000DB
:1001E000089560E086E00E947000089584B18F63F6
:1001F00084B985B18E7F85B985B18D7F85B98FE54D
:100200009AEE0197F1F700C0000060E083E00E94E1
:1002100070008FE19EE40197F1F700C0000060E0FC
:1002200083E00E94700087E592E00197F1F700C03B
:10023000000060E083E00E94700087E592E0019793
:10024000F1F700C0000060E082E00E94700087E5E6
:1002500092E00197F1F700C0000060E088E20E94A0
:10026000700081E00E94A0000E94F1000E94DB006B
:100270000E94E60008950E94DB0067E770E080E0DE
:100280000E94B90068E670E081E00E94B90008951C
:100290000E94F600E0E0F1E01082118284E992E031
:1002A0009383828388E790E0958384838CE390E056
:1002B0009783868381E080870E943B01FFCFF8947B
:0202C000FFCF6E
:00000001FF
